:100000000C9491000C94B9000C94B9000C94B900B4
:100010000C94B9000C94B9000C94B9000C94B9007C
:100020000C94B9000C94B9000C9417090C9489092C
:100030000C94B9000C94B9000C94B9000C94B9005C
:100040000C94B9000C94B9000C94B9000C94B9004C
:100050000C94B9000C94B9000C94B9000C947B0E6C
:100060000C94B9000C94B9000C94B9000C94B9002C
:100070000C94B9000C94B9000C94B9000C94B9001C
:100080000C94B9000C94B9000C94B9000C94B9000C
:100090000C94B9000C94B9000C94B9000C94B900FC
:1000A0000C94B9000C94B9000C94B900080B000230
:1000B0000202010009040000010202000005240000
:1000C0001001052401010104240206052406000193
:1000D0000705810310004009040100020A00000026
:1000E00007050202400000070583024000000403E8
:1000F000090412010002EF0201404F1B03920001AC
:1001000001020301537061726B46756E005370619A
:10011000726B46756E2050726F204D6963726F006E
:10012000661111241FBECFEFDAE0DEBFCDBF11E0B4
:10013000A0E0B1E0E0E6F4E202C005900D92AC363A
:10014000B107D9F725E0ACE6B1E001C01D92AC39AA
:10015000B207E1F710E0C1E9D0E004C02197FE0149
:100160000E941412C039D107C9F70E94C50E0C9421
:100170002E120C94000080E991E00895269A0895CB
:10018000249A0895259A0895CF93DF9300D000D044
:1001900000D0CDB7DEB7AB011C821D821E82DC0110
:1001A000ED91FC910190F081E02D19821A821B8261
:1001B0009E012F5F3F4FBE016C5F7F4F09952696D2
:1001C0000FB6F894DEBF0FBECDBFDF91CF9108957B
:1001D000FC0185859685089580E090E008954F9212
:1001E0005F926F927F928F92AF92BF92CF92DF9287
:1001F000EF920F931F93CF93DF933C01EB010F9688
:100200000E94760DF894E881F98175B1706165B14D
:100210006F7E65B9CA848F812C2D281B822F2F8376
:10022000BF844A805B801D850C85DE841F5F0F5F65
:10023000D3949E813885A984EB844181D20120E04A
:10024000C32F522F322F3181442788943111380F18
:1002500008F43FEF8195889410FD430F47958894EB
:1002600011FD430F4795889412FD430F47958894DD
:1002700013FD430F4795889414FD430F47958894C9
:1002800015FD430F4795889416FD430F47958894B5
:1002900017FD430F47958894232F1111242F8C0DA0
:1002A000422F002C75B900C047FF65B93081222765
:1002B000889400C000C0002C65B93111390F00C00E
:1002C000002C75B900C046FF65B908F43FEF919561
:1002D000889400C000C0002C65B900FD230F00C049
:1002E000002C75B900C045FF65B92795889401FDBC
:1002F000230F00C000C0002C65B92795889400C06A
:10030000002C75B900C044FF65B902FD230F279585
:10031000889400C000C0002C65B903FD230F00C005
:10032000002C75B900C043FF65B92795889404FD7A
:10033000230F00C000C0002C65B92795889400C029
:10034000002C75B900C042FF65B905FD230F279544
:10035000889400C000C0002C65B906FD230F00C0C2
:10036000002C75B900C041FF65B92795889407FD39
:10037000230F00C000C0002C65B92795889400C0E9
:10038000002C75B900C040FF65B9432F0111422F01
:100390009A0D00C000C0002C65B900C000C0002C40
:1003A00075B900C047FF65B932812227889400C023
:1003B00000C0002C65B931113C0F00C0002C75B98C
:1003C00000C046FF65B908F43FEFEB0DF11D00C01A
:1003D00000C0002C65B9D0FC230F00C0002C75B9FB
:1003E00000C045FF65B927958894D1FC230F00C054
:1003F00000C0002C65B92795889400C0002C75B901
:1004000000C044FF65B9D2FC230F2795889400C033
:1004100000C0002C65B9D3FC230F00C0002C75B9B7
:1004200000C043FF65B927958894D4FC230F00C012
:1004300000C0002C65B92795889400C0002C75B9C0
:1004400000C042FF65B9D5FC230F2795889400C0F2
:1004500000C0002C65B9D6FC230F00C0002C75B974
:1004600000C041FF65B927958894D7FC230F00C0D1
:1004700000C0002C65B92795889400C0002C75B980
:1004800000C040FF65B9432FD110422FC19500C075
:1004900000C0002C65B9CE0D00C000C075B900C009
:1004A00047FF65B931812227889400C000C0002C25
:1004B00065B93111380F00C0002C75B900C046FF76
:1004C00065B908F43FEF8195889400C000C0002C06
:1004D00065B910FD230F00C0002C75B900C045FFA1
:1004E00065B92795889411FD230F00C000C0002C2A
:1004F00065B92795889400C0002C75B900C044FFE9
:1005000065B912FD230F2795889400C000C0002C08
:1005100065B913FD230F00C0002C75B900C043FF5F
:1005200065B92795889414FD230F00C000C0002CE6
:1005300065B92795889400C0002C75B900C042FFAA
:1005400065B915FD230F2795889400C000C0002CC5
:1005500065B916FD230F00C0002C75B900C041FF1E
:1005600065B92795889417FD230F00C000C0002CA3
:1005700065B92795889400C0002C75B900C040FF6C
:1005800065B9432F1111422F8C0D00C000C0002C03
:1005900065B9119709F086CE20EE31E0D2010E94B4
:1005A000EE11DC01CB01F4E0B695A7959795879500
:1005B000FA95D1F720E030E0B901EAE94E9E040C4B
:1005C000611D5E9E600D711D1124650D711D860FEC
:1005D000971FA11DB11D893E43E09407A105B105F8
:1005E00008F434C0885E9340A109B10942E0B69591
:1005F000A795979587954A95D1F747E0849F080E70
:10060000211D949F200D311D1124290F311D609152
:100610006E0170E0860F971F820F931F409128058F
:100620005091290560912A0570912B05292F3327B8
:10063000420F531F611D711D4093280550932905DA
:1006400060932A0570932B0580936E0178940E9425
:100650001C0EF301708B6787DF91CF911F910F9173
:10066000EF90DF90CF90BF90AF908F907F906F9082
:100670005F904F9008954F925F926F927F928F920A
:10068000AF92BF92CF92DF92EF920F931F93CF93CF
:10069000DF933C01EB010F960E94760DF894E88100
:1006A000F98175B1706465B16F7B65B9CA848F815A
:1006B0002C2D281B822F2F83BF844A805B801D85B1
:1006C0000C85DE841F5F0F5FD3949E813885A984DB
:1006D000EB844181D20120E0C32F522F322F318190
:1006E000442788943111380F08F43FEF819588949E
:1006F00010FD430F4795889411FD430F479588944B
:1007000012FD430F4795889413FD430F4795889436
:1007100014FD430F4795889415FD430F4795889422
:1007200016FD430F4795889417FD430F479588940E
:10073000232F1111242F8C0D422F002C75B900C0CE
:1007400047FF65B930812227889400C000C0002C83
:1007500065B93111390F00C0002C75B900C046FFD2
:1007600065B908F43FEF9195889400C000C0002C53
:1007700065B900FD230F00C0002C75B900C045FF0E
:1007800065B92795889401FD230F00C000C0002C97
:1007900065B92795889400C0002C75B900C044FF46
:1007A00065B902FD230F2795889400C000C0002C76
:1007B00065B903FD230F00C0002C75B900C043FFCD
:1007C00065B92795889404FD230F00C000C0002C54
:1007D00065B92795889400C0002C75B900C042FF08
:1007E00065B905FD230F2795889400C000C0002C33
:1007F00065B906FD230F00C0002C75B900C041FF8C
:1008000065B92795889407FD230F00C000C0002C10
:1008100065B92795889400C0002C75B900C040FFC9
:1008200065B9432F0111422F9A0D00C000C0002C62
:1008300065B900C000C0002C75B900C047FF65B99C
:1008400032812227889400C000C0002C65B9311184
:100850003C0F00C0002C75B900C046FF65B908F414
:100860003FEFEB0DF11D00C000C0002C65B9D0FCBE
:10087000230F00C0002C75B900C045FF65B927954E
:100880008894D1FC230F00C000C0002C65B92795C7
:10089000889400C0002C75B900C044FF65B9D2FC33
:1008A000230F2795889400C000C0002C65B9D3FCA5
:1008B000230F00C0002C75B900C043FF65B9279510
:1008C0008894D4FC230F00C000C0002C65B9279584
:1008D000889400C0002C75B900C042FF65B9D5FCF2
:1008E000230F2795889400C000C0002C65B9D6FC62
:1008F000230F00C0002C75B900C041FF65B92795D2
:100900008894D7FC230F00C000C0002C65B9279540
:10091000889400C0002C75B900C040FF65B9432F12
:10092000D110422FC19500C000C0002C65B9CE0D7A
:1009300000C000C075B900C047FF65B931812227EA
:10094000889400C000C0002C65B93111380F00C078
:10095000002C75B900C046FF65B908F43FEF8195DA
:10096000889400C000C0002C65B910FD230F00C0A2
:10097000002C75B900C045FF65B92795889411FD15
:10098000230F00C000C0002C65B92795889400C0D3
:10099000002C75B900C044FF65B912FD230F2795DF
:1009A000889400C000C0002C65B913FD230F00C05F
:1009B000002C75B900C043FF65B92795889414FDD4
:1009C000230F00C000C0002C65B92795889400C093
:1009D000002C75B900C042FF65B915FD230F27959E
:1009E000889400C000C0002C65B916FD230F00C01C
:1009F000002C75B900C041FF65B92795889417FD93
:100A0000230F00C000C0002C65B92795889400C052
:100A1000002C75B900C040FF65B9432F1111422F5A
:100A20008C0D00C000C0002C65B9119709F086CE6E
:100A300020EE31E0D2010E94EE11DC01CB01F4E0A6
:100A4000B695A79597958795FA95D1F720E030E070
:100A5000B901EAE94E9E040C611D5E9E600D711D98
:100A60001124650D711D860F971FA11DB11D893EB3
:100A700043E09407A105B10508F434C0885E9340B3
:100A8000A109B10942E0B695A795979587954A9532
:100A9000D1F747E0849F080E211D949F200D311D42
:100AA0001124290F311D60916E0170E0860F971F90
:100AB000820F931F409128055091290560912A05C6
:100AC00070912B05292F3327420F531F611D711D74
:100AD000409328055093290560932A0570932B05B0
:100AE00080936E0178940E941C0EF301708B6787CF
:100AF000DF91CF911F910F91EF90DF90CF90BF903A
:100B0000AF908F907F906F905F904F9008954F922D
:100B10005F926F927F928F92AF92BF92CF92DF924D
:100B2000EF920F931F93CF93DF933C01EB010F964E
:100B30000E94760DF894E881F98175B1706265B113
:100B40006F7D65B9CA848F812C2D281B822F2F833E
:100B5000BF844A805B801D850C85DE841F5F0F5F2C
:100B6000D3949E813885A984EB844181D20120E011
:100B7000C32F522F322F3181442788943111380FDF
:100B800008F43FEF8195889410FD430F47958894B2
:100B900011FD430F4795889412FD430F47958894A4
:100BA00013FD430F4795889414FD430F4795889490
:100BB00015FD430F4795889416FD430F479588947C
:100BC00017FD430F47958894232F1111242F8C0D67
:100BD000422F002C75B900C047FF65B9308122272C
:100BE000889400C000C0002C65B93111390F00C0D5
:100BF000002C75B900C046FF65B908F43FEF919528
:100C0000889400C000C0002C65B900FD230F00C00F
:100C1000002C75B900C045FF65B92795889401FD82
:100C2000230F00C000C0002C65B92795889400C030
:100C3000002C75B900C044FF65B902FD230F27954C
:100C4000889400C000C0002C65B903FD230F00C0CC
:100C5000002C75B900C043FF65B92795889404FD41
:100C6000230F00C000C0002C65B92795889400C0F0
:100C7000002C75B900C042FF65B905FD230F27950B
:100C8000889400C000C0002C65B906FD230F00C089
:100C9000002C75B900C041FF65B92795889407FD00
:100CA000230F00C000C0002C65B92795889400C0B0
:100CB000002C75B900C040FF65B9432F0111422FC8
:100CC0009A0D00C000C0002C65B900C000C0002C07
:100CD00075B900C047FF65B932812227889400C0EA
:100CE00000C0002C65B931113C0F00C0002C75B953
:100CF00000C046FF65B908F43FEFEB0DF11D00C0E1
:100D000000C0002C65B9D0FC230F00C0002C75B9C1
:100D100000C045FF65B927958894D1FC230F00C01A
:100D200000C0002C65B92795889400C0002C75B9C7
:100D300000C044FF65B9D2FC230F2795889400C0FA
:100D400000C0002C65B9D3FC230F00C0002C75B97E
:100D500000C043FF65B927958894D4FC230F00C0D9
:100D600000C0002C65B92795889400C0002C75B987
:100D700000C042FF65B9D5FC230F2795889400C0B9
:100D800000C0002C65B9D6FC230F00C0002C75B93B
:100D900000C041FF65B927958894D7FC230F00C098
:100DA00000C0002C65B92795889400C0002C75B947
:100DB00000C040FF65B9432FD110422FC19500C03C
:100DC00000C0002C65B9CE0D00C000C075B900C0D0
:100DD00047FF65B931812227889400C000C0002CEC
:100DE00065B93111380F00C0002C75B900C046FF3D
:100DF00065B908F43FEF8195889400C000C0002CCD
:100E000065B910FD230F00C0002C75B900C045FF67
:100E100065B92795889411FD230F00C000C0002CF0
:100E200065B92795889400C0002C75B900C044FFAF
:100E300065B912FD230F2795889400C000C0002CCF
:100E400065B913FD230F00C0002C75B900C043FF26
:100E500065B92795889414FD230F00C000C0002CAD
:100E600065B92795889400C0002C75B900C042FF71
:100E700065B915FD230F2795889400C000C0002C8C
:100E800065B916FD230F00C0002C75B900C041FFE5
:100E900065B92795889417FD230F00C000C0002C6A
:100EA00065B92795889400C0002C75B900C040FF33
:100EB00065B9432F1111422F8C0D00C000C0002CCA
:100EC00065B9119709F086CE20EE31E0D2010E947B
:100ED000EE11DC01CB01F4E0B695A79597958795C7
:100EE000FA95D1F720E030E0B901EAE94E9E040C12
:100EF000611D5E9E600D711D1124650D711D860FB3
:100F0000971FA11DB11D893E43E09407A105B105BE
:100F100008F434C0885E9340A109B10942E0B69557
:100F2000A795979587954A95D1F747E0849F080E36
:100F3000211D949F200D311D1124290F311D609119
:100F40006E0170E0860F971F820F931F4091280556
:100F50005091290560912A0570912B05292F33277F
:100F6000420F531F611D711D4093280550932905A1
:100F700060932A0570932B0580936E0178940E94EC
:100F80001C0EF301708B6787DF91CF911F910F913A
:100F9000EF90DF90CF90BF90AF908F907F906F9049
:100FA0005F904F9008950F931F93CF93DF93CDB72A
:100FB000DEB762970FB6F894DEBF0FBECDBF8C01CF
:100FC000F901DC011C968C917A8369835C834B83E5
:100FD0005E834D8390819D8791819E8792819F87BB
:100FE000813029F4CE0101960E94370D06C01C867F
:100FF0001B861A86198618861F82188A1A8A198AE9
:10100000D801ED91FC910484F585E02DBE016F5F60
:101010007F4FC801099562960FB6F894DEBF0FBEE8
:10102000CDBFDF91CF911F910F9108950F931F9323
:10103000CF93DF93CDB7DEB762970FB6F894DEBFDC
:101040000FBECDBF8C01F901DC011C968C917A8317
:1010500069835C834B835E834D8390819D879181FF
:101060009E8792819F87813029F4CE0101960E944C
:10107000370D06C01C861B861A86198618861F82A5
:1010800083E0888B1A8A198AD801ED91FC91048437
:10109000F585E02DBE016F5F7F4FC801099562960F
:1010A0000FB6F894DEBF0FBECDBFDF91CF911F9179
:1010B0000F910895FC0180E191E091838083138278
:1010C00012828FEF868387838087818782878387D9
:1010D00081E08487168615861582148280917501B9
:1010E00090917601892B21F4F0937601E0937501BC
:1010F000A0916C01B0916D01109721F01596FC93B1
:10110000EE931497F0936D01E0936C0108950E94A3
:101110002912DF92EF92FF920F931F93CF93DF93E9
:10112000D82EF92EE42E062F10E0C8010196880F64
:101130000E94FC0C83E00E94FC0CCD2DDF2D0C0FD7
:101140001D1FC017D10789F0E7FE03C0FE0184917F
:1011500001C088810E94FC0CF82E80E00E94FC0CEB
:101160008F2121968111EDCF01C081E0DF91CF91D8
:101170001F910F91FF90EF90DF900895DF92EF9213
:10118000FF920F931F93CF93DF93D82E8A017B0199
:10119000E40EF51EEB01CE15DF0571F0D7FE03C09E
:1011A000FE01849101C088810E94FC0C219681116E
:1011B000F2CF8FEF9FEF01C0C801DF91CF911F9158
:1011C0000F91FF90EF90DF9008950F931F93CF93AF
:1011D000DF931F92CDB7DEB782E0898342E450E00F
:1011E0006CEA70E080E80E94BE080E94080EDC01F4
:1011F00012960D911C9113970115110589F0D801D4
:10120000ED91FC910280F381E02DBE016F5F7F4F75
:10121000C801099597FD04C0F80100851185ECCF40
:1012200089810F90DF91CF911F910F9108951F92A7
:101230000F920FB60F9211248F939F938091E1002C
:101240009091E100937F9093E10083FF0FC0109293
:10125000E90091E09093EB001092EC0092E3909300
:10126000ED0010922D0598E09093F00082FF20C0D1
:1012700093E09093E9009091F200992319F09AE39A
:101280009093E80090917301992339F09091730144
:10129000915090937301992389F190912C05992392
:1012A00039F090912C05915090932C05992341F1A0
:1012B00084FF10C08091E2008E7E81608093E20006
:1012C0008091E1008F7E8093E100809174018E7E99
:1012D000806111C080FF16C08091E2008E7E806127
:1012E0008093E2008091E1008E7E8093E100809106
:1012F00074018E7E81608093740104C05D9ACDCFAD
:10130000289AD6CF9F918F910F900FBE0F901F906C
:1013100018951F920F920FB60F921124CF92DF9261
:10132000EF92FF920F931F932F933F934F935F93EF
:101330006F937F938F939F93AF93BF93EF93FF939D
:10134000CF93DF93CDB7DEB76C97DEBFCDBF1092E2
:10135000E9008091E80083FFFBC168E0CE0145967B
:101360000E942A0D82EF8093E8008D8987FF05C0D7
:101370009091E80090FFFCCF03C09EEF9093E800AF
:10138000982F907609F0C6C09E894F89588D2F8975
:10139000F88C91110CC0803829F4809178018093E9
:1013A000F10002C01092F1001092F10045C191309D
:1013B00051F4811141C14130510509F03DC1809185
:1013C00078018D7F0BC0933061F4811135C14130BC
:1013D000510509F031C180917801826080937801D4
:1013E0002BC1953049F48091E80080FFFCCF822F1B
:1013F00080688093E30020C1963009F05EC00B8DB9
:101400001C8D22E01092E90010927201109271017D
:10141000F21232C01092700110926F010E94E50822
:1014200099E0BE016F5F7F4FDB01E92F1D92EA95C6
:10143000E9F79983FA8291E09E8390EA98879AEF80
:1014400099872091710130917201275F3F4F3C8352
:101450002B838D831092E90010927201109271011A
:101460001093700100936F0149E050E080E00E940A
:10147000BE080E94E508E0C01093700100936F0160
:101480000E94080EDC0112960D911C911397011514
:10149000110509F4BBC0D801ED91FC910480F581E0
:1014A000E02DBE016B5E7F4FC8010995009709F0E2
:1014B000C7C0F80100851185EACF973009F445C10E
:1014C000983021F481E08093F100B6C0993009F0A2
:1014D000B3C0837009F039C1EDE1F1E081E031E0A2
:1014E00096E32081211109C08EE78093EA001092D3
:1014F000EA008F8980932D059FC08093E900309387
:10150000EB0021912093EC009093ED008F5F8730EA
:1015100041F7EACF8B8D9C8D1092E90010927201F9
:10152000109271019093700180936F01898D8111E8
:1015300053C08E899D89913A49F4813209F005C1E1
:1015400047E050E064E071E080E0BBC0913209F018
:10155000FCC0833269F48F89988DA0E0B0E080935D
:10156000000190930101A0930201B093030164C0B4
:10157000803269F48091E80082FFFCCF67E084E06C
:1015800091E00E942A0D8BEF8093E80055C08232D3
:1015900009F052C08F8980930B01EEEFFFE7859130
:1015A00094918B3F9C4D19F0E0E0F8E002C0EEEF23
:1015B000FAE08091040190910501A0910601B0919B
:1015C0000701803B9440A105B10509F09EC08091C0
:1015D0000B0180FF79C099C00E94080EFC010281B6
:1015E00013810115110509F4B0C0D801ED91FC91EA
:1015F0000190F081E02DBE016B5E7F4FC80109951F
:1016000081111AC0F80100851185EBCFF1E0FF16BA
:1016100009F44EC0F3E0FF1298C08F89882309F4C3
:101620004AC0823089F440E862E18DE091E00E9496
:101630008908882309F489C08EEF8093E80088C068
:1016400018161906CCF381C0813029F440E868E00F
:1016500084E091E0ECCF833009F077C00E94080E5F
:10166000DC011296ED90FC9013978E010F5F1F4FD7
:101670006801E114F10479F0D701ED91FC91068045
:10168000F781E02DB801C7010995080F111DF70179
:10169000E084F184EECFD8011C92F6010190002085
:1016A000E9F73197BF016C197D0940E0C601BFCF52
:1016B00062EF70E002C06EEE70E0FB01449150E01A
:1016C00080E80E94BE08B8CFEE3F2AE0F20751F052
:1016D000808191818737A7E79A0721F09093FF0ACD
:1016E0008093FE0A87E797E791838083809160006B
:1016F000809377019BE088E10FB6F894A8958093DA
:1017000060000FBE9093600097CF808191818737F2
:10171000974709F091CFA8958091600088618093E8
:1017200060008091770180936000EE3FBAE0FB0794
:1017300039F08091FE0A9091FF0A918380837CCFDB
:101740001092FF0A1092FE0A77CF81E28093EB009D
:101750006C960FB6F894DEBF0FBECDBFDF91CF9170
:10176000FF91EF91BF91AF919F918F917F916F9179
:101770005F914F913F912F911F910F91FF90EF90AB
:10178000DF90CF900F900FBE0F901F901895CF92C3
:10179000DF92EF92FF920F931F93CF93DF936C0131
:1017A0007A018B01C0E0D0E0CE15DF0581F0D801D1
:1017B0006D918D01D601ED91FC910190F081E02DAC
:1017C000C6010995892B11F02196EECF7E01C70144
:1017D000DF91CF911F910F91FF90EF90DF90CF900D
:1017E0000895CF93DF931F92CDB7DEB76983DC01F5
:1017F000ED91FC910280F381E02D41E050E0BE01CB
:101800006F5F7F4F09950F90DF91CF91089583E02F
:101810008093E9008091F200882319F08AE3809395
:10182000E8000895FC018485958597FD0BC09FB75E
:10183000F89482E08093E9008091F2009FBF90E0ED
:10184000019608959FB7F89482E08093E900809113
:10185000F2009FBF90E00895089580E090E0089521
:101860008F929F92AF92BF92CF92DF92EF92FF92B0
:101870000F931F93CF93DF936C017B018A018091BB
:101880000B01882309F45CC080912D05882309F49D
:1018900057C08091740180FF05C08091E000826094
:1018A0008093E000E801B12C8AEFA82E93E0892E06
:1018B0002AE3922E209711F4BB20D9F10E94F70D54
:1018C00081110AC0AA94AA20D9F161E070E080E0F9
:1018D00090E00E94410EEECF282F30E0C217D307D0
:1018E0000CF48C2F9FB7F8948092E9002091E800C7
:1018F00025FF1DC0282F30E0C21BD30BF7018150FC
:1019000020F041914093F100FACFE20EF31EBB208C
:1019100019F09092E8000AC08091E80085FD07C0A8
:101920009092E800BB24B394209709F0B12C9FBF9C
:10193000C1CF5D9884E6809373011016110644F0C0
:1019400081E090E0F6019383828380E090E001C023
:10195000C801DF91CF911F910F91FF90EF90DF9021
:10196000CF90BF90AF909F908F9008950E94F70DF9
:1019700090E008950F931F93CF93DF931F92CDB7FD
:10198000DEB78C01FC018485958597FF0EC0CE01E2
:1019900001960E94C90D019719F4898190E002C057
:1019A0008FEF9FEFF80195878487F80184859585EF
:1019B0000F90DF91CF911F910F910895CF93DF93F7
:1019C0001F92CDB7DEB7FC018485958597FD05C0D4
:1019D0002FEF3FEF358724870BC0CE0101960E9481
:1019E000C90D019719F4898190E002C08FEF9FEF34
:1019F0000F90DF91CF910895409171015091720144
:101A000020916F013091700142175307B4F4909107
:101A1000E8009570E1F39091E80092FD19C0809381
:101A2000F100809171019091720101968F73992755
:101A3000892B19F48EEF8093E800809171019091C9
:101A400072010196909372018093710181E0089573
:101A500080E00895615030F02091F100FC01208376
:101A60000196F8CF289884E680932C0508950F936B
:101A70001F93CF93DF93209127052F5F322F37706D
:101A80003093270520FF02C020E801C020E031FD8F
:101A90002064347009F02062205FFC01EC01239681
:101AA00000E011E06485662331F070E0C8010E9417
:101AB00099116F5F01C060E06187322F369F030E7E
:101AC00030E0311D1124311102C0168202C03150A4
:101AD0003683662311F0615061873196CE17DF0798
:101AE00009F7DF91CF911F910F910895CF93DF9365
:101AF000EC010E941C0E28813981621B730B6A3035
:101B00007105B8F3DF91CF910895EF92FF920F9393
:101B10001F93CF93DF93EC017B018A01E881F98168
:101B20000480F581E02D0995FB82EA821E870D87EE
:101B3000E881F9810284F385E02DCE0109950097B3
:101B400001F19C0140E050E060E472E48FE090E03D
:101B50000E94CF118091810590918205A09183050B
:101B6000B091840582179307A407B50710F4DA0132
:101B7000C9018093810590938205A0938305B0935A
:101B80008405CE01DF91CF911F910F91FF90EF90CF
:101B9000089520912D05211103C08FEF9FEF089527
:101BA0005FB7F89422E02093E9002091F20030E042
:101BB0001216130614F421E030E0422FFC0184E6F3
:101BC000415038F0289880932C059091F100919322
:101BD000F7CF2115310521F08091F200882319F00B
:101BE0005FBFC90108958BE68093E800F9CF2FB756
:101BF000F89483E08093E9009091E800892F807247
:101C000095FF04C09091F20080E4891B2FBF0895D6
:101C10008091940581110DC082E08093900584E04D
:101C200080939105109293051092920581E0809324
:101C3000940580E995E008953FB7F89480918C056C
:101C400090918D05A0918E05B0918F0526B5A89B2A
:101C500005C02F3F19F00196A11DB11D3FBFBA2F3E
:101C6000A92F982F8827820F911DA11DB11DBC019E
:101C7000CD0142E0660F771F881F991F4A95D1F763
:101C800008958F929F92AF92BF92CF92DF92EF9280
:101C9000FF926B017C010E941C0E4B015C01C11480
:101CA000D104E104F104F1F00E941C0EDC01CB012F
:101CB00088199909AA09BB09883E9340A105B10575
:101CC00070F321E0C21AD108E108F10888EE880E0D
:101CD00083E0981EA11CB11CC114D104E104F104DD
:101CE00019F7DDCFFF90EF90DF90CF90BF90AF90CE
:101CF0009F908F9008951F920F920FB60F9211240C
:101D00002F933F938F939F93AF93BF938091280519
:101D100090912905A0912A05B0912B0530918B0552
:101D200023E0230F2D3720F40196A11DB11D05C01E
:101D300026E8230F0296A11DB11D20938B058093E9
:101D4000280590932905A0932A05B0932B0580912F
:101D50008C0590918D05A0918E05B0918F0501960F
:101D6000A11DB11D80938C0590938D05A0938E05C8
:101D7000B0938F05BF91AF919F918F913F912F911C
:101D80000F900FBE0F901F901895CF93DF9300D048
:101D900000D01F92CDB7DEB7789484B5826084BD41
:101DA00084B5816084BD85B5826085BD85B581605F
:101DB00085BD80916E00816080936E0010928100DD
:101DC0008091810082608093810080918100816098
:101DD0008093810080918000816080938000809159
:101DE0009100826080939100809191008160809346
:101DF0009100809190008160809390008091C1005B
:101E000084608093C1008091C10082608093C10092
:101E10008091C10081608093C1008091C300816086
:101E20008093C3008091C00082608093C000809145
:101E3000C20081608093C20080917A0084608093A8
:101E40007A0080917A00826080937A0080917A0093
:101E5000816080937A0080917A00806880937A0014
:101E600010922D0510927801109274018091D70084
:101E700081608093D70080EA8093D80089B5806123
:101E800089BD89B5826089BD09B400FEFDCF61E0DE
:101E900070E080E090E00E94410E8091D8008F7C3D
:101EA00080618093D8008091E000807F8093E00083
:101EB0008091E1008E7E8093E1008DE08093E200CE
:101EC000559A209A8FEF9FEF90933B0580933A05A8
:101ED00010910B016AE070E080E090E00E94410EFA
:101EE0001123B1F380918A01811111C089E791E03A
:101EF0000E945A08109289011092880187E291E0AD
:101F000090937A018093790181E080938A014FE078
:101F100051E06EEC71E089E791E00E94850D8091BF
:101F2000A301811111C082E991E00E945A08109228
:101F3000A2011092A10189E391E090939301809313
:101F4000920181E08093A30146E050E06EEF74E0DF
:101F500082E991E00E94850D8091BC01811111C040
:101F60008BEA91E00E945A081092BB011092BA01CC
:101F70008BE491E09093AC018093AB0181E080937E
:101F8000BC0146E050E06EEF74E08BEA91E00E9405
:101F9000850D8FEF80937E058EE295E00E94120CF6
:101FA0000397D4F38EE295E00E94DE0C082F809315
:101FB00026058EE295E00E94DE0C182F8093250501
:101FC0008EE295E00E94DE0C80932405EEEFF4E0B3
:101FD00020E030E00083118382832F5F3F4F3396F0
:101FE0002C303105B9F73093230520932205109248
:101FF000FD041092FC040091FC041091FD040F30CC
:1020000041E0140708F04CC08EE295E00E94120CEB
:102010000597D4F38EE295E00E94DE0CC82E8093E3
:1020200026058EE295E00E94DE0CD82E80932505D1
:102030008EE295E00E94DE0CE82E809324058EE26D
:1020400095E00E94DE0CF82E8093FB048EE295E072
:102050000E94DE0CBC2CA12CA5014D0D511DF801D8
:10206000EE0FFF1FE00FF11FE253FE4F9801400FEC
:10207000511F2417350758F42F3091E0390739F0F4
:10208000E082F18282832F5F3F4F3396F2CF30930D
:102090002305209322055093FD044093FC04ABCF0D
:1020A000F0907E058091810590918205A091830535
:1020B000B0918405892B8A2B8B2BE9F00E941C0E92
:1020C0000091CA011091CB012091CC013091CD013A
:1020D000DC01CB01801B910BA20BB30B009181059E
:1020E0001091820520918305309184058017910716
:1020F000A207B307B8F20E941C0E6093CA01709346
:10210000CB018093CC019093CD01E0918905F091B2
:102110008A05309759F04091850550918605609168
:102120008705709188058F2D0995F82E009175010E
:10213000109176014F2C512C612C712C0115110539
:1021400009F467C0D8011C96EC901C9780917F051C
:10215000909180058436910510F41C961C92D8014C
:10216000ED91FC91428153815D834C8319821A82E7
:102170001B82F11019C0D8011D964D915C911E97DC
:1021800012966D917C9113979E012F5F3F4FC8016E
:10219000EC81FD810995D8011C96EC921C97149650
:1021A0000D911C911597CACFF8013696AE014F5F7D
:1021B0005F4F6A01480159E0850E911C219122234D
:1021C00009F132803320F1F0822F90E0A0E0B0E0FE
:1021D0009C01AD012F5F3F4F4F4F5F4FC301B201D5
:1021E0000E9489119B01AC01832D90E0A0E0B0E03A
:1021F000BC01CD016F5F7F4F8F4F9F4F0E948911B0
:10220000D6018C93BFEFCB1ADB0A8E169F06B1F670
:10221000B2CF8091C8019091C9019C012F5F3F4FBF
:102220003093C9012093C80149970CF447C08FB778
:10223000F894009128051091290520912A053091E4
:102240002B058FBF8091C8019091C901E8EEF3E0A2
:102250008E9FB0018F9F700D9E9F700D1124072ED1
:10226000000C880B990BC090C401D090C501E09080
:10227000C601F090C701A90198012C193D094E092A
:102280005F090E94AD113093800520937F05109265
:10229000C9011092C8012FB7F89480912805909138
:1022A0002905A0912A05B0912B052FBF8093C40169
:1022B0009093C501A093C601B093C70140E050E0E0
:1022C000452B09F469CE0E94000066CEEEE2F5E0EF
:1022D0001382128288EE93E0A0E0B0E084839583BD
:1022E000A683B7838DE591E0918380838FEF9FEF85
:1022F00095878487EEE7F5E0808312821182148649
:1023000013868FEF9FEFDC0187839087A187B287C9
:102310000895DB018F939F930E94F511BF91AF91B8
:10232000A29F800D911DA39F900DB29F900D11242F
:10233000089597FB072E16F4009407D077FD09D077
:102340000E94001207FC05D03EF4909581959F4FA6
:102350000895709561957F4F0895A1E21A2EAA1BEA
:10236000BB1BFD010DC0AA1FBB1FEE1FFF1FA21745
:10237000B307E407F50720F0A21BB30BE40BF50B42
:10238000661F771F881F991F1A9469F760957095CB
:10239000809590959B01AC01BD01CF010895052E5C
:1023A00097FB1EF400940E94E61157FD07D00E948F
:1023B000AD1107FC03D04EF40C94E61150954095F6
:1023C000309521953F4F4F4F5F4F089590958095E1
:1023D000709561957F4F8F4F9F4F08950E941A12FD
:1023E000B7FF0895821B930B08950E941A12A59FB0
:1023F000900DB49F900DA49F800D911D1124089500
:10240000AA1BBB1B51E107C0AA1FBB1FA617B7071A
:1024100010F0A61BB70B881F991F5A95A9F7809536
:102420009095BC01CD010895EE0FFF1F0590F4912A
:10243000E02D0994A29FB001B39FC001A39F700D2E
:10244000811D1124911DB29F700D811D1124911DBC
:10245000089581E090E0F8940C942E12F894FFCF48
:10246000FFFFFFFF00E1000000000000000000008F
:10247000870887088708C400E800EC0000C1808155
:1024800000000000000000D3071608BE00C400E8EA
:1024900000BB003B0300000000D3071608C000C4C7
:1024A00000E800BB00EF0000000000D3071608C2E0
:1024B00000C400E800BB00870500000000F10B30FD
:0C24C0000CB60C070C120CDE0CBA0C0061
:00000001FF
